{
  "contractName": "SolnSquareVerifier",
  "abi": [
    {
      "inputs": [
        {
          "internalType": "address",
          "name": "verifierAddress",
          "type": "address"
        }
      ],
      "stateMutability": "nonpayable",
      "type": "constructor"
    },
    {
      "anonymous": false,
      "inputs": [
        {
          "indexed": true,
          "internalType": "address",
          "name": "owner",
          "type": "address"
        },
        {
          "indexed": true,
          "internalType": "address",
          "name": "approved",
          "type": "address"
        },
        {
          "indexed": true,
          "internalType": "uint256",
          "name": "tokenId",
          "type": "uint256"
        }
      ],
      "name": "Approval",
      "type": "event"
    },
    {
      "anonymous": false,
      "inputs": [
        {
          "indexed": true,
          "internalType": "address",
          "name": "owner",
          "type": "address"
        },
        {
          "indexed": true,
          "internalType": "address",
          "name": "operator",
          "type": "address"
        },
        {
          "indexed": false,
          "internalType": "bool",
          "name": "approved",
          "type": "bool"
        }
      ],
      "name": "ApprovalForAll",
      "type": "event"
    },
    {
      "anonymous": false,
      "inputs": [
        {
          "indexed": false,
          "internalType": "address",
          "name": "from",
          "type": "address"
        },
        {
          "indexed": false,
          "internalType": "address",
          "name": "to",
          "type": "address"
        }
      ],
      "name": "OwnershipTransferred",
      "type": "event"
    },
    {
      "anonymous": false,
      "inputs": [
        {
          "indexed": false,
          "internalType": "address",
          "name": "pausingAddress",
          "type": "address"
        }
      ],
      "name": "Paused",
      "type": "event"
    },
    {
      "anonymous": false,
      "inputs": [
        {
          "indexed": false,
          "internalType": "address",
          "name": "solutionAddress",
          "type": "address"
        },
        {
          "indexed": false,
          "internalType": "uint256",
          "name": "tokenId",
          "type": "uint256"
        }
      ],
      "name": "SolutionAdded",
      "type": "event"
    },
    {
      "anonymous": false,
      "inputs": [
        {
          "indexed": true,
          "internalType": "address",
          "name": "from",
          "type": "address"
        },
        {
          "indexed": true,
          "internalType": "address",
          "name": "to",
          "type": "address"
        },
        {
          "indexed": true,
          "internalType": "uint256",
          "name": "tokenId",
          "type": "uint256"
        }
      ],
      "name": "Transfer",
      "type": "event"
    },
    {
      "anonymous": false,
      "inputs": [
        {
          "indexed": false,
          "internalType": "address",
          "name": "unPausingAddress",
          "type": "address"
        }
      ],
      "name": "Unpaused",
      "type": "event"
    },
    {
      "inputs": [
        {
          "internalType": "address",
          "name": "to",
          "type": "address"
        },
        {
          "internalType": "uint256",
          "name": "tokenId",
          "type": "uint256"
        }
      ],
      "name": "approve",
      "outputs": [],
      "stateMutability": "nonpayable",
      "type": "function"
    },
    {
      "inputs": [
        {
          "internalType": "address",
          "name": "owner",
          "type": "address"
        }
      ],
      "name": "balanceOf",
      "outputs": [
        {
          "internalType": "uint256",
          "name": "",
          "type": "uint256"
        }
      ],
      "stateMutability": "view",
      "type": "function",
      "constant": true
    },
    {
      "inputs": [
        {
          "internalType": "uint256",
          "name": "tokenId",
          "type": "uint256"
        }
      ],
      "name": "getApproved",
      "outputs": [
        {
          "internalType": "address",
          "name": "",
          "type": "address"
        }
      ],
      "stateMutability": "view",
      "type": "function",
      "constant": true
    },
    {
      "inputs": [],
      "name": "getOwner",
      "outputs": [
        {
          "internalType": "address",
          "name": "",
          "type": "address"
        }
      ],
      "stateMutability": "view",
      "type": "function",
      "constant": true
    },
    {
      "inputs": [],
      "name": "getTokenInfo",
      "outputs": [
        {
          "internalType": "string",
          "name": "name",
          "type": "string"
        },
        {
          "internalType": "string",
          "name": "symbol",
          "type": "string"
        },
        {
          "internalType": "string",
          "name": "baseTokenURI",
          "type": "string"
        }
      ],
      "stateMutability": "view",
      "type": "function",
      "constant": true
    },
    {
      "inputs": [
        {
          "internalType": "address",
          "name": "owner",
          "type": "address"
        },
        {
          "internalType": "address",
          "name": "operator",
          "type": "address"
        }
      ],
      "name": "isApprovedForAll",
      "outputs": [
        {
          "internalType": "bool",
          "name": "",
          "type": "bool"
        }
      ],
      "stateMutability": "view",
      "type": "function",
      "constant": true
    },
    {
      "inputs": [
        {
          "internalType": "address",
          "name": "to",
          "type": "address"
        },
        {
          "internalType": "uint256",
          "name": "tokenId",
          "type": "uint256"
        }
      ],
      "name": "mint",
      "outputs": [
        {
          "internalType": "bool",
          "name": "",
          "type": "bool"
        }
      ],
      "stateMutability": "nonpayable",
      "type": "function"
    },
    {
      "inputs": [
        {
          "internalType": "uint256",
          "name": "tokenId",
          "type": "uint256"
        }
      ],
      "name": "ownerOf",
      "outputs": [
        {
          "internalType": "address",
          "name": "",
          "type": "address"
        }
      ],
      "stateMutability": "view",
      "type": "function",
      "constant": true
    },
    {
      "inputs": [
        {
          "internalType": "address",
          "name": "from",
          "type": "address"
        },
        {
          "internalType": "address",
          "name": "to",
          "type": "address"
        },
        {
          "internalType": "uint256",
          "name": "tokenId",
          "type": "uint256"
        }
      ],
      "name": "safeTransferFrom",
      "outputs": [],
      "stateMutability": "nonpayable",
      "type": "function"
    },
    {
      "inputs": [
        {
          "internalType": "address",
          "name": "from",
          "type": "address"
        },
        {
          "internalType": "address",
          "name": "to",
          "type": "address"
        },
        {
          "internalType": "uint256",
          "name": "tokenId",
          "type": "uint256"
        },
        {
          "internalType": "bytes",
          "name": "_data",
          "type": "bytes"
        }
      ],
      "name": "safeTransferFrom",
      "outputs": [],
      "stateMutability": "nonpayable",
      "type": "function"
    },
    {
      "inputs": [
        {
          "internalType": "address",
          "name": "to",
          "type": "address"
        },
        {
          "internalType": "bool",
          "name": "approved",
          "type": "bool"
        }
      ],
      "name": "setApprovalForAll",
      "outputs": [],
      "stateMutability": "nonpayable",
      "type": "function"
    },
    {
      "inputs": [
        {
          "internalType": "bool",
          "name": "pause",
          "type": "bool"
        }
      ],
      "name": "setPauseVal",
      "outputs": [],
      "stateMutability": "nonpayable",
      "type": "function"
    },
    {
      "inputs": [
        {
          "internalType": "bytes4",
          "name": "interfaceId",
          "type": "bytes4"
        }
      ],
      "name": "supportsInterface",
      "outputs": [
        {
          "internalType": "bool",
          "name": "",
          "type": "bool"
        }
      ],
      "stateMutability": "view",
      "type": "function",
      "constant": true
    },
    {
      "inputs": [
        {
          "internalType": "uint256",
          "name": "index",
          "type": "uint256"
        }
      ],
      "name": "tokenByIndex",
      "outputs": [
        {
          "internalType": "uint256",
          "name": "",
          "type": "uint256"
        }
      ],
      "stateMutability": "view",
      "type": "function",
      "constant": true
    },
    {
      "inputs": [
        {
          "internalType": "address",
          "name": "owner",
          "type": "address"
        },
        {
          "internalType": "uint256",
          "name": "index",
          "type": "uint256"
        }
      ],
      "name": "tokenOfOwnerByIndex",
      "outputs": [
        {
          "internalType": "uint256",
          "name": "",
          "type": "uint256"
        }
      ],
      "stateMutability": "view",
      "type": "function",
      "constant": true
    },
    {
      "inputs": [
        {
          "internalType": "uint256",
          "name": "tokenId",
          "type": "uint256"
        }
      ],
      "name": "tokenURI",
      "outputs": [
        {
          "internalType": "string",
          "name": "",
          "type": "string"
        }
      ],
      "stateMutability": "view",
      "type": "function",
      "constant": true
    },
    {
      "inputs": [],
      "name": "totalSupply",
      "outputs": [
        {
          "internalType": "uint256",
          "name": "",
          "type": "uint256"
        }
      ],
      "stateMutability": "view",
      "type": "function",
      "constant": true
    },
    {
      "inputs": [
        {
          "internalType": "address",
          "name": "from",
          "type": "address"
        },
        {
          "internalType": "address",
          "name": "to",
          "type": "address"
        },
        {
          "internalType": "uint256",
          "name": "tokenId",
          "type": "uint256"
        }
      ],
      "name": "transferFrom",
      "outputs": [],
      "stateMutability": "nonpayable",
      "type": "function"
    },
    {
      "inputs": [
        {
          "internalType": "address",
          "name": "newOwner",
          "type": "address"
        }
      ],
      "name": "transferOwnership",
      "outputs": [],
      "stateMutability": "nonpayable",
      "type": "function"
    },
    {
      "inputs": [
        {
          "internalType": "address",
          "name": "to",
          "type": "address"
        },
        {
          "internalType": "uint256",
          "name": "tokenId",
          "type": "uint256"
        },
        {
          "internalType": "uint256[2]",
          "name": "a",
          "type": "uint256[2]"
        },
        {
          "internalType": "uint256[2][2]",
          "name": "b",
          "type": "uint256[2][2]"
        },
        {
          "internalType": "uint256[2]",
          "name": "c",
          "type": "uint256[2]"
        },
        {
          "internalType": "uint256[2]",
          "name": "input",
          "type": "uint256[2]"
        }
      ],
      "name": "mintToken",
      "outputs": [
        {
          "internalType": "bool",
          "name": "",
          "type": "bool"
        }
      ],
      "stateMutability": "nonpayable",
      "type": "function"
    }
  ],
  "bytecode": "0x60806040523480156200001157600080fd5b5060405162003967380380620039678339818101604052810190620000379190620003c7565b6040518060400160405280601581526020017f52656e74616c2050726f7065727479205469746c6500000000000000000000008152506040518060400160405280600381526020017f52505400000000000000000000000000000000000000000000000000000000008152506040518060600160405280603f815260200162003928603f9139336000806101000a81548173ffffffffffffffffffffffffffffffffffffffff021916908373ffffffffffffffffffffffffffffffffffffffff16021790555060008060146101000a81548160ff0219169083151502179055506200012f6301ffc9a760e01b6200020d60201b60201c565b620001476380ac58cd60e01b6200020d60201b60201c565b6200015f63780e9d6360e01b6200020d60201b60201c565b82600a908051906020019062000177929190620002ad565b5081600b908051906020019062000190929190620002ad565b5080600c9080519060200190620001a9929190620002ad565b50620001c2635b5e139f60e01b6200020d60201b60201c565b50505080600e60006101000a81548173ffffffffffffffffffffffffffffffffffffffff021916908373ffffffffffffffffffffffffffffffffffffffff160217905550506200045e565b63ffffffff60e01b817bffffffffffffffffffffffffffffffffffffffffffffffffffffffff191614156200024157600080fd5b6001806000837bffffffffffffffffffffffffffffffffffffffffffffffffffffffff19167bffffffffffffffffffffffffffffffffffffffffffffffffffffffff1916815260200190815260200160002060006101000a81548160ff02191690831515021790555050565b828054620002bb9062000428565b90600052602060002090601f016020900481019282620002df57600085556200032b565b82601f10620002fa57805160ff19168380011785556200032b565b828001600101855582156200032b579182015b828111156200032a5782518255916020019190600101906200030d565b5b5090506200033a91906200033e565b5090565b5b80821115620003595760008160009055506001016200033f565b5090565b600080fd5b600073ffffffffffffffffffffffffffffffffffffffff82169050919050565b60006200038f8262000362565b9050919050565b620003a18162000382565b8114620003ad57600080fd5b50565b600081519050620003c18162000396565b92915050565b600060208284031215620003e057620003df6200035d565b5b6000620003f084828501620003b0565b91505092915050565b7f4e487b7100000000000000000000000000000000000000000000000000000000600052602260045260246000fd5b600060028204905060018216806200044157607f821691505b60208210811415620004585762000457620003f9565b5b50919050565b6134ba806200046e6000396000f3fe608060405234801561001057600080fd5b506004361061012c5760003560e01c806370a08231116100ad578063b88d4fde11610071578063b88d4fde14610369578063c87b56dd14610385578063ccd5835a146103b5578063e985e9c5146103e5578063f2fde38b146104155761012c565b806370a08231146102c3578063893d20e8146102f35780638ef8f2dc14610311578063a22cb4651461032d578063abb1dc44146103495761012c565b80632f745c59116100f45780632f745c59146101e757806340c10f191461021757806342842e0e146102475780634f6ccce7146102635780636352211e146102935761012c565b806301ffc9a714610131578063081812fc14610161578063095ea7b31461019157806318160ddd146101ad57806323b872dd146101cb575b600080fd5b61014b600480360381019061014691906121f1565b610431565b6040516101589190612239565b60405180910390f35b61017b6004803603810190610176919061228a565b610499565b60405161018891906122f8565b60405180910390f35b6101ab60048036038101906101a6919061233f565b6104d6565b005b6101b56106bd565b6040516101c2919061238e565b60405180910390f35b6101e560048036038101906101e091906123a9565b6106ca565b005b61020160048036038101906101fc919061233f565b6106ed565b60405161020e919061238e565b60405180910390f35b610231600480360381019061022c919061233f565b610767565b60405161023e9190612239565b60405180910390f35b610261600480360381019061025c91906123a9565b610815565b005b61027d6004803603810190610278919061228a565b610835565b60405161028a919061238e565b60405180910390f35b6102ad60048036038101906102a8919061228a565b610870565b6040516102ba91906122f8565b60405180910390f35b6102dd60048036038101906102d891906123fc565b6108ad565b6040516102ea919061238e565b60405180910390f35b6102fb6108fd565b60405161030891906122f8565b60405180910390f35b61032b60048036038101906103269190612455565b610926565b005b61034760048036038101906103429190612482565b6109d1565b005b610351610b07565b6040516103609392919061255b565b60405180910390f35b610383600480360381019061037e91906126dc565b610cc1565b005b61039f600480360381019061039a919061228a565b610ce7565b6040516103ac919061275f565b60405180910390f35b6103cf60048036038101906103ca91906128e8565b610d9e565b6040516103dc9190612239565b60405180910390f35b6103ff60048036038101906103fa9190612978565b610f36565b60405161040c9190612239565b60405180910390f35b61042f600480360381019061042a91906123fc565b610fca565b005b600060016000837bffffffffffffffffffffffffffffffffffffffffffffffffffffffff19167bffffffffffffffffffffffffffffffffffffffffffffffffffffffff1916815260200190815260200160002060009054906101000a900460ff169050919050565b60006003600083815260200190815260200160002060009054906101000a900473ffffffffffffffffffffffffffffffffffffffff169050919050565b6002600082815260200190815260200160002060009054906101000a900473ffffffffffffffffffffffffffffffffffffffff1673ffffffffffffffffffffffffffffffffffffffff168273ffffffffffffffffffffffffffffffffffffffff161415610578576040517f08c379a000000000000000000000000000000000000000000000000000000000815260040161056f90612a2a565b60405180910390fd5b6105806108fd565b73ffffffffffffffffffffffffffffffffffffffff163373ffffffffffffffffffffffffffffffffffffffff1614806105c657506105c56105bf6108fd565b83610f36565b5b610605576040517f08c379a00000000000000000000000000000000000000000000000000000000081526004016105fc90612a70565b60405180910390fd5b816003600083815260200190815260200160002060006101000a81548173ffffffffffffffffffffffffffffffffffffffff021916908373ffffffffffffffffffffffffffffffffffffffff160217905550808273ffffffffffffffffffffffffffffffffffffffff166106776108fd565b73ffffffffffffffffffffffffffffffffffffffff167f8c5be1e5ebec7d5bd14f71427d1e84f3dd0314c0f7b2291e5b200ac8c7c3b92560405160405180910390a45050565b6000600880549050905090565b6106d4338261111b565b6106dd57600080fd5b6106e88383836111b0565b505050565b60006106f8836108ad565b821061070357600080fd5b600660008473ffffffffffffffffffffffffffffffffffffffff1673ffffffffffffffffffffffffffffffffffffffff168152602001908152602001600020828154811061075457610753612a90565b5b9060005260206000200154905092915050565b60008060009054906101000a900473ffffffffffffffffffffffffffffffffffffffff1673ffffffffffffffffffffffffffffffffffffffff163373ffffffffffffffffffffffffffffffffffffffff16146107f8576040517f08c379a00000000000000000000000000000000000000000000000000000000081526004016107ef90612b0b565b60405180910390fd5b61080283836111d4565b61080b826111f5565b6001905092915050565b61083083838360405180602001604052806000815250610cc1565b505050565b600061083f6106bd565b821061084a57600080fd5b6008828154811061085e5761085d612a90565b5b90600052602060002001549050919050565b60006002600083815260200190815260200160002060009054906101000a900473ffffffffffffffffffffffffffffffffffffffff169050919050565b60006108f6600460008473ffffffffffffffffffffffffffffffffffffffff1673ffffffffffffffffffffffffffffffffffffffff1681526020019081526020016000206112cd565b9050919050565b60008060009054906101000a900473ffffffffffffffffffffffffffffffffffffffff16905090565b60008054906101000a900473ffffffffffffffffffffffffffffffffffffffff1673ffffffffffffffffffffffffffffffffffffffff163373ffffffffffffffffffffffffffffffffffffffff16146109b4576040517f08c379a00000000000000000000000000000000000000000000000000000000081526004016109ab90612b0b565b60405180910390fd5b80600060146101000a81548160ff02191690831515021790555050565b3373ffffffffffffffffffffffffffffffffffffffff168273ffffffffffffffffffffffffffffffffffffffff161415610a0a57600080fd5b80600560003373ffffffffffffffffffffffffffffffffffffffff1673ffffffffffffffffffffffffffffffffffffffff16815260200190815260200160002060008473ffffffffffffffffffffffffffffffffffffffff1673ffffffffffffffffffffffffffffffffffffffff16815260200190815260200160002060006101000a81548160ff0219169083151502179055508173ffffffffffffffffffffffffffffffffffffffff163373ffffffffffffffffffffffffffffffffffffffff167f17307eab39ab6107e8899845ad3d59bd9653f200f220920489ca2b5937696c3183604051610afb9190612239565b60405180910390a35050565b6060806060600a600b600c828054610b1e90612b5a565b80601f0160208091040260200160405190810160405280929190818152602001828054610b4a90612b5a565b8015610b975780601f10610b6c57610100808354040283529160200191610b97565b820191906000526020600020905b815481529060010190602001808311610b7a57829003601f168201915b50505050509250818054610baa90612b5a565b80601f0160208091040260200160405190810160405280929190818152602001828054610bd690612b5a565b8015610c235780601f10610bf857610100808354040283529160200191610c23565b820191906000526020600020905b815481529060010190602001808311610c0657829003601f168201915b50505050509150808054610c3690612b5a565b80601f0160208091040260200160405190810160405280929190818152602001828054610c6290612b5a565b8015610caf5780601f10610c8457610100808354040283529160200191610caf565b820191906000526020600020905b815481529060010190602001808311610c9257829003601f168201915b50505050509050925092509250909192565b610ccc8484846106ca565b610cd8848484846112db565b610ce157600080fd5b50505050565b6060610cf2826113e3565b610cfb57600080fd5b600d60008381526020019081526020016000208054610d1990612b5a565b80601f0160208091040260200160405190810160405280929190818152602001828054610d4590612b5a565b8015610d925780601f10610d6757610100808354040283529160200191610d92565b820191906000526020600020905b815481529060010190602001808311610d7557829003601f168201915b50505050509050919050565b6000600e60009054906101000a900473ffffffffffffffffffffffffffffffffffffffff1673ffffffffffffffffffffffffffffffffffffffff1663621e9ec0868686866040518563ffffffff1660e01b8152600401610e019493929190612d35565b6020604051808303816000875af1158015610e20573d6000803e3d6000fd5b505050506040513d601f19601f82011682018060405250810190610e449190612d91565b610e83576040517f08c379a0000000000000000000000000000000000000000000000000000000008152600401610e7a90612e0a565b60405180910390fd5b600085858585604051602001610e9c9493929190612f8f565b604051602081830303815290604052805190602001209050600f600082815260200190815260200160002060009054906101000a900460ff1615610f15576040517f08c379a0000000000000000000000000000000000000000000000000000000008152600401610f0c90613029565b60405180910390fd5b610f1f8888611455565b610f298888610767565b9150509695505050505050565b6000600560008473ffffffffffffffffffffffffffffffffffffffff1673ffffffffffffffffffffffffffffffffffffffff16815260200190815260200160002060008373ffffffffffffffffffffffffffffffffffffffff1673ffffffffffffffffffffffffffffffffffffffff16815260200190815260200160002060009054906101000a900460ff16905092915050565b60008054906101000a900473ffffffffffffffffffffffffffffffffffffffff1673ffffffffffffffffffffffffffffffffffffffff163373ffffffffffffffffffffffffffffffffffffffff1614611058576040517f08c379a000000000000000000000000000000000000000000000000000000000815260040161104f90612b0b565b60405180910390fd5b60008060009054906101000a900473ffffffffffffffffffffffffffffffffffffffff169050816000806101000a81548173ffffffffffffffffffffffffffffffffffffffff021916908373ffffffffffffffffffffffffffffffffffffffff1602179055507f8be0079c531659141344cd1fd0a4f28419497f9722a3daafe3b4186f6b6457e08160008054906101000a900473ffffffffffffffffffffffffffffffffffffffff1660405161110f929190613049565b60405180910390a15050565b60008061112783610870565b90508073ffffffffffffffffffffffffffffffffffffffff168473ffffffffffffffffffffffffffffffffffffffff16148061119657508373ffffffffffffffffffffffffffffffffffffffff1661117e84610499565b73ffffffffffffffffffffffffffffffffffffffff16145b806111a757506111a68185610f36565b5b91505092915050565b6111bb838383611550565b6111c58382611780565b6111cf8282611937565b505050565b6111de82826119fb565b6111e88282611937565b6111f181611af4565b5050565b6111fe816113e3565b61120757600080fd5b6112a3600c805461121790612b5a565b80601f016020809104026020016040519081016040528092919081815260200182805461124390612b5a565b80156112905780601f1061126557610100808354040283529160200191611290565b820191906000526020600020905b81548152906001019060200180831161127357829003601f168201915b505050505061129e83611b3d565b611c9e565b600d600083815260200190815260200160002090805190602001906112c99291906120e2565b5050565b600081600001549050919050565b60006112fc8473ffffffffffffffffffffffffffffffffffffffff16611ce2565b61130957600190506113db565b60008473ffffffffffffffffffffffffffffffffffffffff1663150b7a02338887876040518563ffffffff1660e01b815260040161134a94939291906130c7565b6020604051808303816000875af1158015611369573d6000803e3d6000fd5b505050506040513d601f19601f8201168201806040525081019061138d9190613128565b905063150b7a0260e01b7bffffffffffffffffffffffffffffffffffffffffffffffffffffffff1916817bffffffffffffffffffffffffffffffffffffffffffffffffffffffff1916149150505b949350505050565b6000806002600084815260200190815260200160002060009054906101000a900473ffffffffffffffffffffffffffffffffffffffff169050600073ffffffffffffffffffffffffffffffffffffffff168173ffffffffffffffffffffffffffffffffffffffff161415915050919050565b60405180604001604052808281526020018373ffffffffffffffffffffffffffffffffffffffff16815250601060008473ffffffffffffffffffffffffffffffffffffffff1673ffffffffffffffffffffffffffffffffffffffff1681526020019081526020016000206000820151816000015560208201518160010160006101000a81548173ffffffffffffffffffffffffffffffffffffffff021916908373ffffffffffffffffffffffffffffffffffffffff1602179055509050507f3a01cc868bdb36c1d9b8a262a8ad25064b23ac175b3f8e4453f1daf8ff6bac0d8282604051611544929190613155565b60405180910390a15050565b8273ffffffffffffffffffffffffffffffffffffffff166002600083815260200190815260200160002060009054906101000a900473ffffffffffffffffffffffffffffffffffffffff1673ffffffffffffffffffffffffffffffffffffffff16146115f1576040517f08c379a00000000000000000000000000000000000000000000000000000000081526004016115e8906131ca565b60405180910390fd5b6116108273ffffffffffffffffffffffffffffffffffffffff16611ce2565b15611650576040517f08c379a000000000000000000000000000000000000000000000000000000000815260040161164790613236565b60405180910390fd5b61165b6000826104d6565b6116a2600460008573ffffffffffffffffffffffffffffffffffffffff1673ffffffffffffffffffffffffffffffffffffffff168152602001908152602001600020611cf5565b8173ffffffffffffffffffffffffffffffffffffffff166002600083815260200190815260200160002060009054906101000a90505050611720600460008473ffffffffffffffffffffffffffffffffffffffff1673ffffffffffffffffffffffffffffffffffffffff168152602001908152602001600020611d51565b808273ffffffffffffffffffffffffffffffffffffffff168473ffffffffffffffffffffffffffffffffffffffff167fddf252ad1be2c89b69c2b068fc378daa952ba7f163c4a11628f55a4df523b3ef60405160405180910390a4505050565b60006001600660008573ffffffffffffffffffffffffffffffffffffffff1673ffffffffffffffffffffffffffffffffffffffff168152602001908152602001600020805490506117d19190613285565b90506000600760008481526020019081526020016000205490508181146118cc576000600660008673ffffffffffffffffffffffffffffffffffffffff1673ffffffffffffffffffffffffffffffffffffffff168152602001908152602001600020838154811061184557611844612a90565b5b9060005260206000200154905080600660008773ffffffffffffffffffffffffffffffffffffffff1673ffffffffffffffffffffffffffffffffffffffff16815260200190815260200160002083815481106118a4576118a3612a90565b5b9060005260206000200181905550816007600083815260200190815260200160002081905550505b600660008573ffffffffffffffffffffffffffffffffffffffff1673ffffffffffffffffffffffffffffffffffffffff16815260200190815260200160002080548061191b5761191a6132b9565b5b6001900381819060005260206000200160009055905550505050565b600660008373ffffffffffffffffffffffffffffffffffffffff1673ffffffffffffffffffffffffffffffffffffffff168152602001908152602001600020805490506007600083815260200190815260200160002081905550600660008373ffffffffffffffffffffffffffffffffffffffff1673ffffffffffffffffffffffffffffffffffffffff1681526020019081526020016000208190806001815401808255809150506001900390600052602060002001600090919091909150555050565b816002600083815260200190815260200160002060006101000a81548173ffffffffffffffffffffffffffffffffffffffff021916908373ffffffffffffffffffffffffffffffffffffffff160217905550611a94600460008473ffffffffffffffffffffffffffffffffffffffff1673ffffffffffffffffffffffffffffffffffffffff168152602001908152602001600020611d51565b808273ffffffffffffffffffffffffffffffffffffffff16600073ffffffffffffffffffffffffffffffffffffffff167fddf252ad1be2c89b69c2b068fc378daa952ba7f163c4a11628f55a4df523b3ef60405160405180910390a45050565b6008805490506009600083815260200190815260200160002081905550600881908060018154018082558091505060019003906000526020600020016000909190919091505550565b60606000821415611b85576040518060400160405280600181526020017f30000000000000000000000000000000000000000000000000000000000000008152509050611c99565b600082905060005b60008214611bb7578080611ba0906132e8565b915050600a82611bb09190613360565b9150611b8d565b60008167ffffffffffffffff811115611bd357611bd26125b1565b5b6040519080825280601f01601f191660200182016040528015611c055781602001600182028036833780820191505090505b5090505b60008514611c9257600182611c1e9190613285565b9150600a85611c2d9190613391565b6030611c3991906133c2565b60f81b818381518110611c4f57611c4e612a90565b5b60200101907effffffffffffffffffffffffffffffffffffffffffffffffffffffffffffff1916908160001a905350600a85611c8b9190613360565b9450611c09565b8093505050505b919050565b6060611cda8383604051806020016040528060008152506040518060200160405280600081525060405180602001604052806000815250611d67565b905092915050565b600080823b905060008111915050919050565b60008160000154905060008111611d41576040517f08c379a0000000000000000000000000000000000000000000000000000000008152600401611d3890613464565b60405180910390fd5b6001810382600001819055505050565b6001816000016000828254019250508190555050565b606060008690506000869050600086905060008690506000869050600081518351855187518951611d9891906133c2565b611da291906133c2565b611dac91906133c2565b611db691906133c2565b67ffffffffffffffff811115611dcf57611dce6125b1565b5b6040519080825280601f01601f191660200182016040528015611e015781602001600182028036833780820191505090505b5090506000819050600080600090505b8851811015611e9957888181518110611e2d57611e2c612a90565b5b602001015160f81c60f81b838380611e44906132e8565b945081518110611e5757611e56612a90565b5b60200101907effffffffffffffffffffffffffffffffffffffffffffffffffffffffffffff1916908160001a9053508080611e91906132e8565b915050611e11565b600090505b8751811015611f2657878181518110611eba57611eb9612a90565b5b602001015160f81c60f81b838380611ed1906132e8565b945081518110611ee457611ee3612a90565b5b60200101907effffffffffffffffffffffffffffffffffffffffffffffffffffffffffffff1916908160001a9053508080611f1e906132e8565b915050611e9e565b600090505b8651811015611fb357868181518110611f4757611f46612a90565b5b602001015160f81c60f81b838380611f5e906132e8565b945081518110611f7157611f70612a90565b5b60200101907effffffffffffffffffffffffffffffffffffffffffffffffffffffffffffff1916908160001a9053508080611fab906132e8565b915050611f2b565b600090505b855181101561204057858181518110611fd457611fd3612a90565b5b602001015160f81c60f81b838380611feb906132e8565b945081518110611ffe57611ffd612a90565b5b60200101907effffffffffffffffffffffffffffffffffffffffffffffffffffffffffffff1916908160001a9053508080612038906132e8565b915050611fb8565b600090505b84518110156120cd5784818151811061206157612060612a90565b5b602001015160f81c60f81b838380612078906132e8565b94508151811061208b5761208a612a90565b5b60200101907effffffffffffffffffffffffffffffffffffffffffffffffffffffffffffff1916908160001a90535080806120c5906132e8565b915050612045565b82995050505050505050505095945050505050565b8280546120ee90612b5a565b90600052602060002090601f0160209004810192826121105760008555612157565b82601f1061212957805160ff1916838001178555612157565b82800160010185558215612157579182015b8281111561215657825182559160200191906001019061213b565b5b5090506121649190612168565b5090565b5b80821115612181576000816000905550600101612169565b5090565b6000604051905090565b600080fd5b600080fd5b60007fffffffff0000000000000000000000000000000000000000000000000000000082169050919050565b6121ce81612199565b81146121d957600080fd5b50565b6000813590506121eb816121c5565b92915050565b6000602082840312156122075761220661218f565b5b6000612215848285016121dc565b91505092915050565b60008115159050919050565b6122338161221e565b82525050565b600060208201905061224e600083018461222a565b92915050565b6000819050919050565b61226781612254565b811461227257600080fd5b50565b6000813590506122848161225e565b92915050565b6000602082840312156122a05761229f61218f565b5b60006122ae84828501612275565b91505092915050565b600073ffffffffffffffffffffffffffffffffffffffff82169050919050565b60006122e2826122b7565b9050919050565b6122f2816122d7565b82525050565b600060208201905061230d60008301846122e9565b92915050565b61231c816122d7565b811461232757600080fd5b50565b60008135905061233981612313565b92915050565b600080604083850312156123565761235561218f565b5b60006123648582860161232a565b925050602061237585828601612275565b9150509250929050565b61238881612254565b82525050565b60006020820190506123a3600083018461237f565b92915050565b6000806000606084860312156123c2576123c161218f565b5b60006123d08682870161232a565b93505060206123e18682870161232a565b92505060406123f286828701612275565b9150509250925092565b6000602082840312156124125761241161218f565b5b60006124208482850161232a565b91505092915050565b6124328161221e565b811461243d57600080fd5b50565b60008135905061244f81612429565b92915050565b60006020828403121561246b5761246a61218f565b5b600061247984828501612440565b91505092915050565b600080604083850312156124995761249861218f565b5b60006124a78582860161232a565b92505060206124b885828601612440565b9150509250929050565b600081519050919050565b600082825260208201905092915050565b60005b838110156124fc5780820151818401526020810190506124e1565b8381111561250b576000848401525b50505050565b6000601f19601f8301169050919050565b600061252d826124c2565b61253781856124cd565b93506125478185602086016124de565b61255081612511565b840191505092915050565b600060608201905081810360008301526125758186612522565b905081810360208301526125898185612522565b9050818103604083015261259d8184612522565b9050949350505050565b600080fd5b600080fd5b7f4e487b7100000000000000000000000000000000000000000000000000000000600052604160045260246000fd5b6125e982612511565b810181811067ffffffffffffffff82111715612608576126076125b1565b5b80604052505050565b600061261b612185565b905061262782826125e0565b919050565b600067ffffffffffffffff821115612647576126466125b1565b5b61265082612511565b9050602081019050919050565b82818337600083830152505050565b600061267f61267a8461262c565b612611565b90508281526020810184848401111561269b5761269a6125ac565b5b6126a684828561265d565b509392505050565b600082601f8301126126c3576126c26125a7565b5b81356126d384826020860161266c565b91505092915050565b600080600080608085870312156126f6576126f561218f565b5b60006127048782880161232a565b94505060206127158782880161232a565b935050604061272687828801612275565b925050606085013567ffffffffffffffff81111561274757612746612194565b5b612753878288016126ae565b91505092959194509250565b600060208201905081810360008301526127798184612522565b905092915050565b600067ffffffffffffffff82111561279c5761279b6125b1565b5b602082029050919050565b600080fd5b60006127bf6127ba84612781565b612611565b905080602084028301858111156127d9576127d86127a7565b5b835b8181101561280257806127ee8882612275565b8452602084019350506020810190506127db565b5050509392505050565b600082601f830112612821576128206125a7565b5b600261282e8482856127ac565b91505092915050565b600067ffffffffffffffff821115612852576128516125b1565b5b602082029050919050565b600061287061286b84612837565b612611565b9050806040840283018581111561288a576128896127a7565b5b835b818110156128b3578061289f888261280c565b84526020840193505060408101905061288c565b5050509392505050565b600082601f8301126128d2576128d16125a7565b5b60026128df84828561285d565b91505092915050565b60008060008060008061018087890312156129065761290561218f565b5b600061291489828a0161232a565b965050602061292589828a01612275565b955050604061293689828a0161280c565b945050608061294789828a016128bd565b93505061010061295989828a0161280c565b92505061014061296b89828a0161280c565b9150509295509295509295565b6000806040838503121561298f5761298e61218f565b5b600061299d8582860161232a565b92505060206129ae8582860161232a565b9150509250929050565b7f5472616e7366657272696e6720616464726573732069732073616d652061732060008201527f6f776e6572206f6620746f6b656e000000000000000000000000000000000000602082015250565b6000612a14602e836124cd565b9150612a1f826129b8565b604082019050919050565b60006020820190508181036000830152612a4381612a07565b9050919050565b50565b6000612a5a6000836124cd565b9150612a6582612a4a565b600082019050919050565b60006020820190508181036000830152612a8981612a4d565b9050919050565b7f4e487b7100000000000000000000000000000000000000000000000000000000600052603260045260246000fd5b7f4d73672073656e646572206973206e6f7420616e206f776e6572000000000000600082015250565b6000612af5601a836124cd565b9150612b0082612abf565b602082019050919050565b60006020820190508181036000830152612b2481612ae8565b9050919050565b7f4e487b7100000000000000000000000000000000000000000000000000000000600052602260045260246000fd5b60006002820490506001821680612b7257607f821691505b60208210811415612b8657612b85612b2b565b5b50919050565b600060029050919050565b600081905092915050565b6000819050919050565b612bb581612254565b82525050565b6000612bc78383612bac565b60208301905092915050565b6000602082019050919050565b612be981612b8c565b612bf38184612b97565b9250612bfe82612ba2565b8060005b83811015612c2f578151612c168782612bbb565b9650612c2183612bd3565b925050600181019050612c02565b505050505050565b600060029050919050565b600081905092915050565b6000819050919050565b600081905092915050565b612c6b81612b8c565b612c758184612c57565b9250612c8082612ba2565b8060005b83811015612cb1578151612c988782612bbb565b9650612ca383612bd3565b925050600181019050612c84565b505050505050565b6000612cc58383612c62565b60408301905092915050565b6000602082019050919050565b612ce781612c37565b612cf18184612c42565b9250612cfc82612c4d565b8060005b83811015612d2d578151612d148782612cb9565b9650612d1f83612cd1565b925050600181019050612d00565b505050505050565b600061014082019050612d4b6000830187612be0565b612d586040830186612cde565b612d6560c0830185612be0565b612d73610100830184612be0565b95945050505050565b600081519050612d8b81612429565b92915050565b600060208284031215612da757612da661218f565b5b6000612db584828501612d7c565b91505092915050565b7f536f6c7574696f6e73206973206e6f7420766572696669656400000000000000600082015250565b6000612df46019836124cd565b9150612dff82612dbe565b602082019050919050565b60006020820190508181036000830152612e2381612de7565b9050919050565b600081905092915050565b612e3e81612254565b82525050565b6000612e508383612e35565b60208301905092915050565b612e6581612b8c565b612e6f8184612e2a565b9250612e7a82612ba2565b8060005b83811015612eab578151612e928782612e44565b9650612e9d83612bd3565b925050600181019050612e7e565b505050505050565b600081905092915050565b600081905092915050565b612ed281612b8c565b612edc8184612ebe565b9250612ee782612ba2565b8060005b83811015612f18578151612eff8782612e44565b9650612f0a83612bd3565b925050600181019050612eeb565b505050505050565b6000612f2c8383612ec9565b60408301905092915050565b612f4181612c37565b612f4b8184612eb3565b9250612f5682612c4d565b8060005b83811015612f87578151612f6e8782612f20565b9650612f7983612cd1565b925050600181019050612f5a565b505050505050565b6000612f9b8287612e5c565b604082019150612fab8286612f38565b608082019150612fbb8285612e5c565b604082019150612fcb8284612e5c565b60408201915081905095945050505050565b7f736f6c7574696f6e20616c726561647920657869737400000000000000000000600082015250565b60006130136016836124cd565b915061301e82612fdd565b602082019050919050565b6000602082019050818103600083015261304281613006565b9050919050565b600060408201905061305e60008301856122e9565b61306b60208301846122e9565b9392505050565b600081519050919050565b600082825260208201905092915050565b600061309982613072565b6130a3818561307d565b93506130b38185602086016124de565b6130bc81612511565b840191505092915050565b60006080820190506130dc60008301876122e9565b6130e960208301866122e9565b6130f6604083018561237f565b8181036060830152613108818461308e565b905095945050505050565b600081519050613122816121c5565b92915050565b60006020828403121561313e5761313d61218f565b5b600061314c84828501613113565b91505092915050565b600060408201905061316a60008301856122e9565b613177602083018461237f565b9392505050565b7f53656e646572206973206e6f74206f776e6572206f6620746f6b656e49640000600082015250565b60006131b4601e836124cd565b91506131bf8261317e565b602082019050919050565b600060208201905081810360008301526131e3816131a7565b9050919050565b7f41646472657373206973206e6f7420454f410000000000000000000000000000600082015250565b60006132206012836124cd565b915061322b826131ea565b602082019050919050565b6000602082019050818103600083015261324f81613213565b9050919050565b7f4e487b7100000000000000000000000000000000000000000000000000000000600052601160045260246000fd5b600061329082612254565b915061329b83612254565b9250828210156132ae576132ad613256565b5b828203905092915050565b7f4e487b7100000000000000000000000000000000000000000000000000000000600052603160045260246000fd5b60006132f382612254565b91507fffffffffffffffffffffffffffffffffffffffffffffffffffffffffffffffff82141561332657613325613256565b5b600182019050919050565b7f4e487b7100000000000000000000000000000000000000000000000000000000600052601260045260246000fd5b600061336b82612254565b915061337683612254565b92508261338657613385613331565b5b828204905092915050565b600061339c82612254565b91506133a783612254565b9250826133b7576133b6613331565b5b828206905092915050565b60006133cd82612254565b91506133d883612254565b9250827fffffffffffffffffffffffffffffffffffffffffffffffffffffffffffffffff0382111561340d5761340c613256565b5b828201905092915050565b7f436f756e7465723a2064656372656d656e74206f766572666c6f770000000000600082015250565b600061344e601b836124cd565b915061345982613418565b602082019050919050565b6000602082019050818103600083015261347d81613441565b905091905056fea2646970667358221220f4dd5f4f0e006bbd23573ef26e85d58280a032325c2316ce54840338a57d1acf64736f6c634300080b003368747470733a2f2f73332d75732d776573742d322e616d617a6f6e6177732e636f6d2f756461636974792d626c6f636b636861696e2f63617073746f6e652f",
  "immutableReferences": {},
  "source": "pragma solidity ^0.8.0;\n\nimport \"./ERC721Mintable.sol\";\n\n// TODO define another contract named SolnSquareVerifier that inherits from your ERC721Mintable class\n\ncontract SolnSquareVerifier is ERC721MetadataImplementation {\n\n    Verifier private verifier;\n    constructor(address verifierAddress) public {\n        verifier = Verifier(verifierAddress);\n    }\n\n// TODO define a solutions struct that can hold an index & an address\n    struct Solution {\n        uint256 tokenId;\n        address solutionAddress;\n    }\n\n    mapping(bytes32 => bool) exitingSolutions;\n\n// TODO define a mapping to store unique solutions submitted\n    mapping(address => Solution) solutions;\n\n\n// TODO Create an event to emit when a solution is added\n    event SolutionAdded(address solutionAddress, uint tokenId);\n\n\n// TODO Create a function to add the solutions to the array and emit the event\n\n    function addSolution(address _address, uint _tokenId) internal {\n        solutions[_address] = Solution({\n        solutionAddress : _address,\n        tokenId : _tokenId\n        });\n        emit SolutionAdded(_address, _tokenId);\n    }\n\n// TODO Create a function to mint new NFT only after the solution has been verified\n//  - make sure the solution is unique (has not been used before)\n//  - make sure you handle metadata as well as tokenSuplly\n    function mintToken(address to, uint256 tokenId, uint[2] memory a, uint[2][2] memory b, uint[2] memory c, uint[2] memory input) public returns (bool){\n        require(verifier.verifyTx(a, b, c, input), \"Solutions is not verified\");\n        bytes32 hash = keccak256(abi.encodePacked(a, b, c, input));\n        require(!exitingSolutions[hash], \"solution already exist\");\n        addSolution(to, tokenId);\n        return super.mint(to, tokenId);\n    }\n\n}\n\n// TODO define a contract call to the zokrates generated solidity contract <Verifier> or <renamedVerifier>\ncontract Verifier {\n    function verifyTx(uint[2] memory, uint[2][2] memory, uint[2] memory, uint[2] memory) public returns (bool){}\n}\n\n\n\n\n\n\n\n\n\n\n\n\n\n\n\n\n\n\n\n\n\n\n\n\n",
  "sourcePath": "/Users/harsimransingh/UdacityCourses/BlockChain/CapStone/Blockchain-Capstone/eth-contracts/contracts/SolnSquareVerifier.sol",
  "compiler": {
    "name": "solc",
    "version": "0.8.11+commit.d7f03943.Emscripten.clang"
  },
  "schemaVersion": "3.4.3",
  "updatedAt": "2022-02-08T02:57:11.891Z",
  "networkType": "ethereum",
  "devdoc": {
    "kind": "dev",
    "methods": {
      "isApprovedForAll(address,address)": {
        "details": "Tells whether an operator is approved by a given owner",
        "params": {
          "operator": "operator address which you want to query the approval of",
          "owner": "owner address which you want to query the approval of"
        },
        "returns": {
          "_0": "bool whether the given operator is approved by the given owner"
        }
      },
      "setApprovalForAll(address,bool)": {
        "details": "Sets or unsets the approval of a given operator An operator is allowed to transfer all tokens of the sender on their behalf",
        "params": {
          "approved": "representing the status of the approval to be set",
          "to": "operator address to set the approval"
        }
      },
      "supportsInterface(bytes4)": {
        "details": "implement supportsInterface(bytes4) using a lookup table"
      },
      "tokenByIndex(uint256)": {
        "details": "Gets the token ID at a given index of all the tokens in this contract Reverts if the index is greater or equal to the total number of tokens",
        "params": {
          "index": "uint256 representing the index to be accessed of the tokens list"
        },
        "returns": {
          "_0": "uint256 token ID at the given index of the tokens list"
        }
      },
      "tokenOfOwnerByIndex(address,uint256)": {
        "details": "Gets the token ID at a given index of the tokens list of the requested owner",
        "params": {
          "index": "uint256 representing the index to be accessed of the requested tokens list",
          "owner": "address owning the tokens list to be accessed"
        },
        "returns": {
          "_0": "uint256 token ID at the given index of the tokens list owned by the requested address"
        }
      },
      "totalSupply()": {
        "details": "Gets the total amount of tokens stored by the contract",
        "returns": {
          "_0": "uint256 representing the total amount of tokens"
        }
      }
    },
    "version": 1
  },
  "userdoc": {
    "kind": "user",
    "methods": {},
    "version": 1
  }
}